:020000040800F2
:1000000098060020D5000008E9260008F91C000821
:1000100000000000000000000000000000000000E0
:10002000000000000000000000000000ED260008B5
:100030000000000000000000EB260008EF2600088A
:10004000E7000008E7000008E7000008E7000008F4
:10005000E7000008E7000008E70000083B0200088E
:1000600000000000E7000008E7000008E7000008C3
:10007000E7000008E7000008E7000008E7000008C4
:100080008D270008E7000008E7000008E7000008E7
:1000900000000000E7000008E7000008091E000853
:1000A000311E0008E7000008E7000008E9310008F9
:1000B000F9310008E700000800000000000000001F
:1000C0000348854600F08EF8004800476B32000870
:1000D000980600200448804704480047FEE7FEE7F2
:1000E000FEE7FEE7FEE7FEE77D270008C100000807
:1000F00030B50B46014600202022012409E00D46C0
:10010000D5409D4205D31D469540491B2546954047
:1001100040191546521E002DF1DC30BDF0B51FB45C
:100120000646002082B005464024019100901BE065
:10013000019922460F46304600F042F8049A059B8A
:10014000801A994110D310461946224600F028F82B
:10015000361A8F410197224601200021009F00F0AE
:100160001FF838184D4100902046641E0028DFDC3F
:10017000019B00982946324607B0F0BDD2B201E09B
:100180000270401C491EFBD270470022F6E710B5F2
:1001900013460A4604461946FFF7F0FF204610BDF5
:1001A00010B5202A04DB0146203A9140002010BD02
:1001B000914020239C1A0346E3401943904010BD10
:1001C00010B5202A04DB0846203AD040002110BD9B
:1001D0000B46D340D0402024A21A91400843194630
:1001E00010BD0000064C0125064E05E0E36807CC73
:1001F0002B430C3C98471034B442F7D3FFF764FF0D
:10020000EC3200080C33000810B500F002F810BD05
:10021000704710B500F00EFC02F02CF902F004F962
:1002200002F06EF902F0B0F902F0DAF902F014FA15
:1002300002F03CFA02F060FA10BD10B5202000F088
:10024000E3F910BD72B6FEE7FEB5044600270020B4
:10025000019000260090002C03D0A06D002802D051
:1002600008E00120FEBD204600F022F90020E065F4
:100270005421085520688168C900C90F002914D18C
:100280008168824A1140012212071143816081482E
:100290007F490068FFF72CFF4000009002E00098C3
:1002A000401E009000980028F9D120688168C9009C
:1002B000C90F002908D1A16D10221143A165E16D7C
:1002C00001221143E165012702F09FF8A16DC906E3
:1002D00001D4002806D0A06D10210843A065012795
:1002E0003846FEBDA06DFF2101318843022108433D
:1002F000A065206802F085F80146204620300029DC
:100300002FD12168CA6818239A43A3681A43CA6088
:10031000626C216C636811439B0FA26C9B071A43AC
:100320001143E26C11430E43017F012900D10E43BA
:1003300021680A69584B1A4032430A6103226168F6
:10034000920791420DD05A0791420AD05200914231
:1003500007D0524DAA680F239B049A4319400A43C1
:10036000AA60217EA27E8D03617EC9030D435103E5
:100370000D43216B002902D00121090300E0002177
:100380000D43E1680D432169002902DA490049085B
:1003900001E0012149050D43017B49000D4301990D
:1003A0000D430078012809D1002A54D0A06D2021E6
:1003B0000843A065E06D01210843E065606A0028FC
:1003C00006D0FF22C1321040A16A28430D460543E2
:1003D0002068C168324A11402943C1602068016920
:1003E000304A1140314301610021626B206802F004
:1003F00010F82D49A26B206802F00BF80F2220693B
:10040000D24300282BD001214905884215D1002074
:10041000216E83000E46DE40F3431B0702D0401CD2
:100420000828F6D301281FD02068836A237F5B1E2B
:100430005B07DB0E9A400A4382622068C0681B4952
:100440000840A84215D10020E065A06D800880001A
:10045000401CA06544E7012000040543AEE7206886
:10046000816A11438162E8E72068816A11438162F1
:10047000E3E7A06D0221884310210843A065E06DE9
:1004800001210843E06501272AE70000E8FFFF7F1C
:10049000400D03000C00002002FCFF1F002701405C
:1004A0001902FEFF02FCFFDF04FFFF07E7FF3F83A7
:1004B00010B586B00446142101A8FFF766FE114965
:1004C000206888421CD110480268012109050A43AE
:1004D00002600068084000900B484038416B0122E0
:1004E00011434163406B10400090C02001900320F5
:1004F000029000200390052001A9000700F09AF85F
:1005000006B010BD0024014040100240F0B50028A4
:100510000AD0014620314A79022A07D00422C26358
:10052000002008710120F0BD0120F0BD02681368B1
:100530000E24A3431360426C1468FF2301339C43D1
:100540001460026814686408640014600C4E7268D9
:10055000056C1C24254001242746AF403A437260B5
:10056000856CC26C6A60026D002A05D015689D43D7
:100570001560826D406D42604C7100200871F0BDC5
:1005800000000240F8B50024014620314A79022AD1
:1005900003D00421C16301242DE0026813680E25F5
:1005A000AB431360026813685B085B001360426C26
:1005B0001368FF250135AB431360104E7268056C5C
:1005C0001C231D4001231F46AF403A437260856CD7
:1005D000C26C6A60026D002A06D016681D02AE4326
:1005E0001660456D826D6A604B7100220A71816BE5
:1005F000002900D088472046F8BD000000000240D6
:10060000203040797047704770B50446074DE86860
:10061000204203D0EC60204600F00AF8286920420E
:1006200003D02C612046FFF7EEFF70BD001802409A
:1006300070470000F0B500228DE0012595402B4069
:10064000002B7DD04C68012C05D0022C03D0112C3E
:1006500001D0122C10D1866854000327A740BE4356
:10066000CF68A740374387604468AC430D79ED06F7
:10067000ED0F954025434560C66855000324AC4006
:10068000A646A6438F68AF403743C7604C68022C2C
:1006900001D0122C0ED1D408A4002418276AA44635
:1006A0005607F40E0F26A640B7430E69A6403E43F8
:1006B0006446266204687646B4430E79B607B60FE0
:1006C000AE40264306604C68E40043D59508254CAF
:1006D000AD002F193D6E9407E40E0F26A640B543DA
:1006E00005263607B04201D100260FE01E4EB0426B
:1006F00001D101260AE01D4EB04201D1022605E0DB
:100700001B4EB04201D1032600E00526A6402E4331
:10071000144D3E66134E803634689C434F68FF0389
:1007200000D51C43346074689C434F68BF0300D5F8
:100730001C4374602C689C434E68F60202D500E0AE
:1007400008E01C432C606C689C434E68B60200D5E0
:100750001C436C60521C0B681C46D44000D06CE7F4
:10076000F0BD0000001802400004005000080050D6
:10077000000C0050002A01D08161704781627047EF
:1007800001488068704700000000002070B50246F4
:1007900040325378202B01D0022070BD1378012BFA
:1007A00019D0012414702423537003681D68A543D5
:1007B0001D6003681D682603B5431D6003681D683E
:1007C0000D431D60006801682143016020205070C6
:1007D0000020107070BD022070BD70B5024640321E
:1007E0005378202B01D0022070BD1378012B18D034
:1007F000012515702423537003681C68AC431C60EA
:1008000003681C680F263602B443090221431960AD
:10081000006801682943016020205070002010709A
:1008200070BD022070BD7047704770B50268936953
:100830001168DB43DC0508D4CC43240605D4446CA2
:1008400001252C4344642C02D4615A0509D4CA43BF
:10085000120606D4426C082422434264E201046872
:10086000E2619A0509D4C943090606D4416C022203
:100870001143416411020268D161416C0B221142A3
:1008800001D001F081FB70BD026891691268436B71
:10089000002B00D0184770477047000070B5044621
:1008A000002C06D02546403568780026002802D066
:1008B00005E0012070BD2E70204600F04FF8242086
:1008C0006870206801684908490001600F2160686C
:1008D0000906884321680861206882680121C903EC
:1008E0008A438260E068012809D02122A068920230
:1008F000104322689060E068022805D008E0A068F4
:10090000226808439060F6E701202268C002506028
:10091000206842680F4B1A4342602068C2688A43CD
:10092000C260616920690843A1690902084321681E
:10093000C860216AE069084321680860206801688E
:100940000122114301606664202068702663AE7046
:10095000002070BD008000027047000070B586B0B6
:100960000446142101A8FFF710FC294E206800223C
:10097000284C122301210625B04221D1E66B4805FF
:100980000643E663E66B06400096606B0226304342
:100990006063606B304000905801019002930391B6
:1009A0000492059501A91C48FFF744FE0022114658
:1009B000172000F09DF8172000F08EF806B070BDEB
:1009C000164EB042FAD1606B08436063606BC0079B
:1009D000C00F00900320C002019002930391049283
:1009E0000595052001A90007FFF724FEE16B012012
:1009F00080050143E163E16B014000910022114653
:100A0000182000F075F8182000F066F8D6E700000E
:100A10000054004000100240000400500058004004
:100A20007047704702488168027889188160704772
:100A30000000002010B5002407480168821511430A
:100A40000160002000F00AF8002801D0012401E034
:100A500000F02CF8204610BD0020024070B505467D
:100A60000024104E3178002919D07D20C000FFF7F6
:100A70003FFB01460C480068FFF73AFB00F08AFC98
:100A8000002801D001240BE0042D06D200222946C3
:100A9000501E00F02DF8756002E0012400E00124F2
:100AA000204670BD000000200C00002008B5094859
:100AB0000168012211430160006810400090054860
:100AC0004038C26B01040A43C263C06B0840009007
:100AD00008BD000040100240002805DBC106C90E19
:100AE00001208840014908607047000000E100E0F3
:100AF00010B502F089FB10BD10B50F4C2168032220
:100B00005202914301432160C11FFF39FA390ED1CE
:100B10000A480621006848430949FFF7E9FA401CE2
:100B200002E0002805D0401E61694905F9D4002083
:100B300010BD032010BD0000007000400C0000201C
:100B400040420F00FEB504460025002720686E4E87
:100B5000800367D5002001906B484038C06BC0000F
:100B60000AD469484038C16B02041143C163C06BA9
:100B700010400090012001906448016882151143E3
:100B80000160FFF7FDFD029007E0FFF7F9FD029914
:100B9000401A022801D9032503E05C480068C0051B
:100BA000F3D5002D04D02F460198012834D039E028
:100BB000F06903210902084000280FD0616A8142D0
:100BC0000CD0F069032109028843F269012109046C
:100BD0000A43F261F2698A43F261F061C0070FD003
:100BE000FFF7CEFD029008E0FFF7CAFD0299411A17
:100BF0004748814201D9032502E0F0698007F3D517
:100C0000002D01D02F46CFE7F06903210902884368
:100C1000616A0843F061C7E73B484038C16B020492
:100C20009143C1632078C00705D07069616880086E
:100C30008000084370612078C00606D570690321E2
:100C400089028843A168084370612088800506D521
:100C500070690321890488436169084370612088B1
:100C6000400506D57069032109058843A169084339
:100C700070612078800606D57069032109038843D6
:100C8000E168084370612088400411D57069E1690A
:100C900080008008084370610121E069890788426B
:100CA00006D119484038C168012212041143C160BD
:100CB0002068800210D5706901218905226A884365
:100CC00010437061206A884206D10F484038C168DD
:100CD000012212061143C1602088000512D57069F7
:100CE0000321890388432169084370610121206938
:100CF0008903884206D104484038C16801221204A1
:100D00001143C1603846FEBD4010024000700040F3
:100D100088130000F8B504460D46002C0FD0544847
:100D200000684007400FA84218D2514F3868C008E9
:100D3000C00028433860FFF723FD064609E0012084
:100D4000F8BDFFF71DFD811B4A48814201D90320F0
:100D5000F8BD38684007400FA842F2D12068464EDF
:100D600081070DD5400704D5B06807210903084362
:100D7000B060B0680F2109028843A1680843B060E1
:100D80002078C0073BD0606801280CD002280FD023
:100D9000002812D038494031032813D0C969890787
:100DA00015D40120F8BD3168890310D40120F8BDA5
:100DB000316889010BD40120F8BD3168490506D49A
:100DC0000120F8BD096A890701D40120F8BDB16886
:100DD000C908C9000143B160FFF7D2FC074607E02C
:100DE000FFF7CEFCC11B2348814201D90320F8BD87
:100DF000B068382108406168C9008842F0D11C48B9
:100E000001684907490FA94216D90168C908C900F4
:100E100029430160FFF7B4FC074607E0FFF7B0FC89
:100E2000C11B1448814201D90320F8BD1048006855
:100E30004007400FA842F1D12078400706D5B1689D
:100E4000072000038143E0680143B16000F036F8F9
:100E5000B1683C2289091140084A515CC906C90E93
:100E6000C8400749086007480068FFF7F7FDF8BD6C
:100E70000020024088130000001002408C3200085D
:100E80000C000020040000200148006870470000AA
:100E90000C00002000B5FFF7F7FF0649896807221C
:100EA00012031140090B044A8900515CC906C90E9E
:100EB000C84000BD00100240CC32000810B5244CE0
:100EC000A068244A8006400F16D0A0688006410F13
:100ED000501001290FD0A1688906490F022914D0AA
:100EE000A0688006400F04282CD0A0688006400F20
:100EF00003282AD0002010BD206801218004400F63
:100F000081401046FFF7F4F810BDE1688B079B0F96
:100F1000E1684906490F491C032B0CD01046FFF726
:100F2000E7F8E1684904490E4843E168490F491C64
:100F3000FFF7DEF810BDFFF7DBF8E1684904490E62
:100F40004843F2E70120C00310BD7D20000210BD20
:100F5000001002400024F400FEB50446002C0DD021
:100F600020783827C007FE4E002851D0B06838409E
:100F7000F1688907890F102802D003E00120FEBD27
:100F800003290AD0082808D0012160680904884292
:100F90000BD13068084330601AE03068800337D5E1
:100FA0006068002834D10120FEBD052301221B0406
:100FB0009204984206D1306810433060306808438C
:100FC000306005E0306888433060306890433060BE
:100FD000606800280ED0FFF7D3FB054606E0FFF758
:100FE000CFFB401B642801D90320FEBD306880037D
:100FF000F5D50DE0FFF7C4FB054606E0FFF7C0FBA3
:10100000401B642801D90320FEBD30688003F5D45D
:10101000207880076DD5B0683840F1688A07920F54
:101020000721C902102801D1022A12D0002810D0AD
:10103000E06800284AD0306888432169084330605E
:101040003068FF21013108433060FFF799FB054606
:1010500030E03268520502D5E268002A0AD0726890
:101060007F231B029A4363691B021A4372600028A4
:1010700002D010E00120FEBD30688843216908439A
:101080003060306801218004400F8140B548FFF78F
:101090002FF8B5490860B5480068FFF7DFFC002865
:1010A00027D00120FEBDFFF76BFB401B022801D9B2
:1010B0000320FEBD30684005F5D570687F21090228
:1010C0008843616909020843706012E03168FF20BB
:1010D000013081433160FFF753FB054606E0FFF71F
:1010E0004FFB401B022801D90320FEBD306840059C
:1010F000F5D420789E4D000734D5B0688006400FA7
:1011000003280AD0A06900281AD0286A01210843C0
:101110002862FFF735FB07460EE0286A800721D5D5
:10112000A06900281ED10120FEBDFFF729FBC01BCE
:10113000022801D90320FEBD286A8007F5D511E0F9
:10114000286A400840002862FFF71AFB074606E0BD
:10115000FFF716FBC01B022801D90320FEBD286A39
:101160008007F5D42078400776D500200190B0683C
:101170008006400F042818D0F06BC00009D4F16B32
:10118000012000070143F163F16B01400091012050
:10119000019078480168C9051AD401688215114385
:1011A0000160FFF7EDFA07460EE0E869800753D5C6
:1011B000A068002850D10120FEBDFFF7E1FAC01B56
:1011C000022801D90320FEBD6A480068C005F4D595
:1011D000A068012810D00421052812D0E869400831
:1011E0004000E861E8698843E861A06800281CD0F5
:1011F000FFF7C6FA074614E0E86901210843E861F1
:10120000F3E7E8690843E861E86901210843E86118
:10121000EBE7FFF7B5FAC11B5748814201D903201C
:10122000FEBDE8698007F4D50EE0FFF7A9FA07468E
:1012300007E0FFF7A5FAC11B4F48814201D90320FF
:10124000FEBDE8698007F4D40198012804D1F06B51
:10125000012109078843F063E06900284FD0B16895
:101260008906490F022956D001273F0602280ED0D1
:101270003068B8433060F06880088000F060F06843
:101280003E490840F060FFF77BFA04463FE03068D3
:10129000B8433060FFF774FA054606E0FFF770FACE
:1012A000401B022801D90320FEBD30688001F5D41F
:1012B000616A206AA26A0843E16A12021143084384
:1012C000216B0843616B0843F1682D4A11400843C4
:1012D000F060306838433060F06801210907084346
:1012E000F060FFF74DFA044606E0FFF749FA001BED
:1012F000022801D90320FEBD30688001F5D546E003
:10130000FFF73EFA001B022801D90320FEBD30681A
:101310008001F5D43BE0012837D0F068226A8107CC
:10132000890F91422FD17021626A014091422AD1E6
:101330007F21A26A090201401202914223D11F219A
:101340004904E26A014091421DD107214906226BFE
:101350000140914217D1400F616B4007884211E074
:10136000001002400024F4000C00002004000020C3
:10137000401002400070004088130000FFFFFEEEA6
:101380008C80C11103D00120FEBD0120FEBD0020D4
:10139000FEBD000010B50949401E884201D9012058
:1013A00010BD074C60610321081F01F02DFF0020D4
:1013B000A06107202061002010BD0000FFFFFF009A
:1013C00000E000E07047704770470000F0B502464B
:1013D0002032137F012B27D0012313770223537769
:1013E00004686368A568114EB44204D10F273F0515
:1013F000BB434F683B437027BB430F681F43676085
:101400000068B04206D001239B07984202D0084BE7
:10141000984204D180239D4389682943816001203B
:10142000507700201077F0BD0220F0BD002C014065
:101430000004004070B50446002C05D02546203538
:10144000687F002802D006E0012070BD00202877C8
:10145000204600F017F802206877211D206801F06F
:10146000A3F9012240342272AA77EA7722706270CF
:10147000A270E27022716271A271E2716A7700203B
:1014800070BD000008B50068094988420FD10948BD
:10149000C26B02210A43C263C06B08400090002265
:1014A00011461020FFF724FB1020FFF715FB08BDA5
:1014B0000004004000100240014620314A7F012A0A
:1014C00001D00120704702224A770168CB680122CF
:1014D0001343CB6000680D49884205D091078842CC
:1014E00002D00B4988420BD181680A4B194006296A
:1014F00009D0DB1F994206D001681143016002E068
:10150000016811430160002070470000002C014079
:10151000000400400700010070B504462546203550
:10152000287F012817D001262E77022068772068AF
:101530008268314B1A40FF231B029A4382600A687B
:10154000502A32D00EDC202A4DD006DC002A4AD0A8
:10155000102A4CD147E0022070BD302A43D0402AE7
:1015600045D136E0602A2AD0702A12D001231B030D
:10157000D01A3CD098423AD1CB684A688968206832
:1015800001F054F9206881680122920311438160BF
:101590002DE0CB684A688968206801F047F9206827
:1015A000816877221143816021E0CA684968206818
:1015B00001F052F95021206801F044F917E0CA689F
:1015C0004968206801F059F96021206801F03AF972
:1015D0000DE0CA684968206801F03EF940212068A2
:1015E00001F030F903E01146206801F02BF96E7725
:1015F0000020287770BD000088FFCEFF70470000F4
:1016000070B50446206801690025C943890700298F
:1016100016DBC168C943890712D4E91E01610120A4
:10162000207720688069800703D02046FFF7E6FF17
:1016300005E0204600F0AAF8204600F0A8F825773B
:1016400020680169C943490718D4C168C9434907DB
:1016500014D40421C94301610220207720688069E5
:101660008005800F03D02046FFF7C8FF05E0204625
:1016700000F08CF8204600F08AF825772068016990
:10168000C943090717D4C168C943090713D40821FE
:10169000C9430161042020772068C069800703D016
:1016A0002046FFF7ABFF05E0204600F06FF820462C
:1016B00000F06DF8257720680169C943C90618D480
:1016C000C168C943C90614D41021C9430161082067
:1016D00020772068C0698005800F03D02046FFF77F
:1016E0008DFF05E0204600F051F8204600F04FF84D
:1016F000257720680169C943C90708D1C168C94372
:10170000C90704D1891E0161204600F041F8206814
:101710000169C943090609D4C168C943090605D44A
:101720008021C94301612046FFF74DFE2068016911
:10173000C943C90508D4C168C943090604D412497C
:1017400001612046FFF73EFE20680169C943490652
:1017500009D4C168C943490605D44021C943016180
:10176000204600F016F820680169C943890609D4AB
:10177000C168C943890605D42021C94301612046B7
:10178000FFF722FE70BD0000FFFEFFFF70477047AD
:10179000704770477047704770B505462C468034D7
:1017A000207801281AD00120207024206060286849
:1017B000066802685208520002602868826807239F
:1017C0005B069A430A438260284601F069F828685C
:1017D0000660202060600020207070BD022070BD77
:1017E0007047704770470000F8B504462368D86911
:1017F00019689A68934D06462E40002E0ED1850634
:101800000CD5012720253F070D4017403D4305D04B
:10181000216F002901D020468847F8BD2546803534
:10182000002E7CD0884E894F16400F40374376D02B
:10183000C70706D0CF0504D501271F62EB683B43DD
:10184000EB60830708D5D30706D0276802233B62E5
:10185000EB6804273B43EB60430708D5D30706D06A
:10186000276804233B62EB6802273B43EB600307D6
:1018700009D520230B40334305D026680823336263
:10188000EE681E43EE60030509D54B0107D5012321
:101890002668DB023362EB6820263343EB60EB689B
:1018A000002BBAD080060AD520200140C005024096
:1018B000114304D0216F002901D020468847E868F1
:1018C00021688968490602D42821084221D020468F
:1018D00001F0BCF820688168490616D5826840216D
:1018E0008A438260E06F00280AD059498163E06F23
:1018F000FEF748FE002890D0E06F816B8847F8BD66
:101900002046FFF76FFFF8BD09E02046FFF76AFFAA
:10191000F9E72046FFF766FF0020E860F3E7E66E90
:10192000012E5CD1C6065AD5CE0658D510221A62B1
:101930002068816826464906403600292EDAE36F82
:101940001968496889B20029DDD0B78B8F42DAD98E
:10195000F18319680968890618D40168130199434D
:1019600001602068816849084900816020688168B9
:101970004023994381602020A8600020E066206811
:10198000016891430160E06FFEF7C0FDB08BF18B01
:10199000401A81B22046FFF7FDFEB4E7B18BF38B0E
:1019A000C91A89B2F38B002BADD00029ABD00368E4
:1019B000FF262136B343036020688368224EF64336
:1019C000334083602020A8600020E0662067206804
:1019D0000368934303602046FFF7DCFE93E7C502EC
:1019E00008D5550206D50120000518622046FFF7EC
:1019F000F8FE88E703060CD501258023ED050B4092
:101A00002A40134305D0616F002987D020468847BC
:101A100079E7420605D54A0603D5204601F032F89B
:101A200071E7020205D54A0003D52046FFF7D8FE2C
:101A300069E7C001B1D50029AFDA2046FFF7ABFE58
:101A400061E700000F080000010000102001000401
:101A5000392A000870B50446002C05D0254680358B
:101A60006868002802D006E0012070BD00202870C0
:101A7000204600F029F824206860206801684908A1
:101A800049000160204601F0B7F9012819D0A06A89
:101A9000002802D0204600F035FF20684168092266
:101AA000D20291434160206881682A22914381607B
:101AB00020680168012211430160204600F088FF80
:101AC00070BD012070BD0000F0B587B00446142140
:101AD00002A8FEF75AFB284E22680520002327495A
:101AE000012402250007B24222D1244A403217685D
:101AF000A603374317601268324001924A6B2243B3
:101B00004A63496B214001910321490202910395E7
:101B100004930593069402A9FEF78CFD002201218F
:101B20001B20FEF7E5FF1B20FEF7D6FF07B0F0BD38
:101B3000134EB242FAD1CA6B012676043243CA630D
:101B4000CA6B324001924A6B22434A63496BC90710
:101B5000C90F01910B4902910395049305930694D3
:101B600002A9FEF767FD002201211C20FEF7C0FF3D
:101B70001C20FEF7B1FFD9E70038014000100240F9
:101B8000004400400480000030B5034680339C6868
:101B9000202C01D0022030BD00290AD0002A08D014
:101BA000012584682D03AC4209D10469002C02D0C0
:101BB00005E0012030BDCC0701D0012030BD1C78EC
:101BC000012C06D001241C700023C36601F042FAE8
:101BD00030BD022030BD000010B5006807498842C2
:101BE0000AD1642301220649064800F00DF80122BB
:101BF00003490448FFF7C8FF10BD0000003801404A
:101C00002000002078010020FFB583B004460E4676
:101C100015462046803002904068202802D00220DD
:101C200007B0F0BD002E0AD0002D08D00120A16819
:101C30000003814209D12069002802D005E001207B
:101C4000EEE7F00701D00120EAE7029800780128CA
:101C50001DD002980121017002990020C8600298ED
:101C600021214160FEF78CFD019027464037BD825F
:101C7000FD820120A1680003814202D12069002871
:101C800007D03546002602990020087018E002208F
:101C9000C6E70025F7E7069800900022802120463D
:101CA000019B01F04FFA002801D00320B8E7002D76
:101CB00015D0287821686D1C8862F88A401EF88249
:101CC000F88A0028E7D1069800900022402120469B
:101CD000019B01F037FA002808D00320A0E73088E4
:101CE000B61CC0052168C00D8862E6E70298202175
:101CF0004160002094E77047FEE70000F0B53F4FD9
:101D0000386882693E490A6009680A073D4912D568
:101D10008269D3030A46526807D5846901231C43AC
:101D20008461D80702434A6002E0500040084860DE
:101D30003A680820D06138688269304D9307314A8B
:101D4000983594780022002B03DA022C0DD0FA2368
:101D50008362386883695B0729D50B78002B22D012
:101D6000022C11D0436A4A7021E0CB780A2B08D2AA
:101D7000EE5C86625B1CD8B2C8700A28E9D3CA70D0
:101D8000E7E7FB238362E4E7CB780A2B08D2446AB7
:101D9000EC545B1CDBB2CB700A2B08D3CA7006E094
:101DA000436A4B7003E0436A8B7001230B708369B5
:101DB000DB060AD51023C3610878002800D00A701A
:101DC000012348685B07184348603B6898698006B0
:101DD00013D54868002806DA400040080124A4070B
:101DE0002043486003E0012424072043486008782A
:101DF000002800D00A702020D861F0BD88000020A3
:101E0000180000201000002010B508480068806904
:101E10004005400F03D00548FEF707FD10BD0348FD
:101E2000FEF732FDFFF76AFF10BD000088000020BA
:101E300010B50748006880694005400F03D004488A
:101E4000FEF7F3FC10BD0248FEF71EFD10BD0000BA
:101E5000D400002010B5806A0022816B002900D0D8
:101E60008A63C16B002900D08A6300F0B7FA10BD05
:101E7000F0B500220346CE0740332824B025002EBB
:101E800005D042225E782746B74300D0F2228E0763
:101E900005D5442632435B789C4300D02A43CB0BC4
:101EA00001D0B8231A43102901D190231A432029C5
:101EB00001D120231A43402900D10A430068016858
:101EC00091430160F0BD01688A69D243920701D451
:101ED00000228A6200688169C943C90703D0816909
:101EE0000122114381617047F8B50446254640350B
:101EF000687828218143206804D00821C16100202E
:101F00002870F8BD8169C903CF0F8169FE230E0CCB
:101F10001E4081688A05920DC16819408C46E168AF
:101F200002290CD00121C9032046FFF7A1FF0020A0
:101F30002870324639462046FEF776FCF8BD062169
:101F4000D3090E400B409E420FD1A16C491CA164E5
:101F5000A16C0229F2D10021A1640823C361297078
:101F600039462046FEF760FCF8BD66460121C903EC
:101F70002046FFF77DFF0020287032463946204674
:101F8000FEF752FCF8BD0000F8B504462546403582
:101F900068780026AE70374AE2626685626C0A4352
:101FA0006264282821D029281FD02A281DD0324930
:101FB0002046FFF75DFF6878602801D02020687018
:101FC0006663206BA16B2D4F002903D0112815D01B
:101FD000212813D0E16B002903D012282CD022280D
:101FE0002AD0204600F0FAF9F8BD03212046FFF779
:101FF0003FFF2820687022486063E2E7206801689C
:10200000490404D501680122920391430160A06B49
:10201000FEF7F6FA01280BD0A06B87632E70A06B39
:10202000FEF7B0FA0028DFD0A06B816B8847F8BDBF
:10203000204600F0D3F9F8BD20680168090404D5F2
:1020400001680122D20391430160E06BFEF7D8FAE8
:1020500001280BD0E06B87632E70E06BFEF792FADD
:102060000028E8D0E06B816B8847F8BD204600F07F
:10207000B5F9F8BD0000FFFF03800000551E000801
:10208000A122000870B504461548E06200262663C8
:102090002020254640356870AE706663C84340070F
:1020A00012D42068406A616A0870606A401C6062ED
:1020B000208D002808D0401E2085608D401E608540
:1020C000606C04210843606406492046FFF7D0FE97
:1020D00021681020C8612E702046FEF73DFC70BDBF
:1020E0000000FFFF03800000F8B504460E4622689A
:1020F00017682546403568782021D161212806D00F
:10210000292804D0222809D02A2807D00DE04549E3
:102110002046FFF7ADFE2120206306E0414920461E
:10212000491CFFF7A5FE2220206320684168012298
:10213000D20311434160206841683B4A114041602D
:102140002046FFF7C0FEF84341040CD42068016824
:102150000122920391430160A06B002811D0006816
:10216000406860850DE000040BD4206802680121FE
:10217000C9038A430260E06B002802D0006840680F
:102180006085F0434007042100280FDB8E43206860
:10219000406A626A1070606A401C6062208D00288C
:1021A00004D0401E2085608D401E6085608D002813
:1021B00002D0606C084360640027AF706763606C96
:1021C00000280BD0616C2046FFF7DEFE68782828D7
:1021D00003D131462046FFF755FFF8BDE06A134EA4
:1021E000B0420BD0204600F023F8E6622020687051
:1021F00027632F702046FEF7AFFBF8BD68782228D2
:1022000007D02020687027632F702046FEF709FC56
:10221000F8BD2020687027632F702046FEF700FC71
:10222000F8BD00000180000000E800FE0000FFFF94
:1022300070B505462868016800262C464034A67013
:10224000C9434A0405D40168012292039143016005
:1022500006E0090404D401680122D203914301601D
:102260006178282029290ED061782A290AD1607046
:102270002220286302212846FFF7FAFD267028460F
:10228000FEF7CEFB70BD6070212028630121284637
:10229000FFF7EEFD26702846FEF7C3FB70BD000079
:1022A000FEB50446E56A0091274640373878012894
:1022B00028D0012038700098D643C0430190800692
:1022C000002805DBB00603D420460099FFF70CFF79
:1022D00001984049404AC00633D4F00631D4638D9A
:1022E0001020002B10D02168C861606C04210843C5
:1022F0006064002D01D0954268D1616C2046FFF7E3
:1023000043FE63E00220FEBD7A78282A08D101222C
:102310005206954204D120460099FFF7B3FE55E0DE
:102320007A78292A0AD18D4208D02168C8612046CE
:10233000FFF7C9FD2046FFF77BFF47E02168C86132
:1023400044E0019840071AD4700718D4608D002823
:102350000CD02068406A626A1070606A401C60623B
:10236000208D401E2085608D401E6085608D002878
:102370002CD18D422AD02046FFF75AFF26E0019843
:10238000000706D4300704D420460099FFF7ACFDBF
:102390001CE00198800719D4B00717D4608D00287D
:1023A0000DD0606A216800788862606A401C6062B3
:1023B000608D401E6085208D401E208506E0954280
:1023C00001D0002D02D12046FFF732FF00203870E7
:1023D000FEBD00000000FFFF0000000110B5014637
:1023E00040314B780022602B04D002630A70FEF764
:1023F00053FA10BD20234B7002630A70FEF713FAE4
:1024000010BD8068C007C00F704780684007C00FCC
:10241000704710B543690424214007248C40A3432E
:102420008A401343436110BD10B511480F49016044
:102430000905416000218160C1600161042242619F
:102440000176417681760122C26102462032117006
:1024500041628162117301631177C164FDF7F4FE7B
:10246000002801D0FDF7EEFE10BD00000024014061
:102470002400002010B586B0142101A8FDF785FEC8
:102480001C48426B04210A434263426B0A4000929B
:10249000426B02210A434263426B0A400092426B44
:1024A000012422434263406B204000902020019091
:1024B000114802900391052001A90007FEF7BAF820
:1024C000002211460720FEF713FB0720FEF704FB4E
:1024D00040200190029400200390084C01A920465E
:1024E000FEF7A8F8012240212046FEF743F906B086
:1024F00010BD000000100240000011100008005044
:1025000038B51E4C1C4820601D4860600220A06049
:102510000120E060002020616061A061E061206234
:102520002046FEF7BBF9002801D0FDF78BFE1548C9
:10253000C16B012252051143C163C06B1040009072
:1025400000210E48FEF722F9002801D0FDF77AFE9F
:1025500000210A48FEF741F9002801D0FDF772FE7C
:10256000206841680122D20391434160BE21206866
:1025700002680A43026038BD005400408800002011
:102580005B3D30000010024010B513481149016056
:1025900012494160002181600122C26001614161F4
:1025A0008161C1610162FEF779F9002801D0FDF770
:1025B00049FE00210848FEF7E9F8002801D0FDF7A0
:1025C00041FE00210448FEF708F9002801D0FDF77C
:1025D00039FE10BD00580040D40000205B3D3000A3
:1025E00010B588B0002404940594069407940194CF
:1025F000029403941648154901609F21416084604C
:102600001449C160046180218161FEF713FF002835
:1026100001D0FDF717FE01200003049004A90C4827
:10262000FEF77AFF002801D0FDF70CFE0194039419
:1026300001A90748FEF7CAFE002801D0FDF702FEF7
:102640000348FEF739FF08B010BD00000004004049
:102650002C0100208713000010B5124810490160BA
:10266000E1214902416000218160C16001610C22C9
:1026700042618161C161FFF7EDF9002801D0FDF7EA
:10268000E1FD00210748FFF787F8002801D0FDF79A
:10269000D9FD012204490348FFF776FA10BD000076
:1026A00000380140780100202000002010B50D48BE
:1026B0000B490160E1214902416000218160C16054
:1026C00001610C2242618161C161016241628162EA
:1026D000FFF7C0F9002801D0FDF7B4FD10BD0000E0
:1026E0000044004008020020FEE77047704710B524
:1026F000FEF798F910BD000010B59CB038210EA867
:10270000FDF743FD00240A940B940C940D942821AA
:102710006846FDF73AFD01204002FEF7EDF90A2078
:102720000E90FF2001301190129440201390012050
:10273000149015940EA8FEF70FFC002801D0FDF7A9
:1027400081FD07200A900B940C940D9400210AA897
:10275000FEF7E0FA002801D0FDF774FD064800906E
:102760000194039407946846FEF7ECF9002801D021
:10277000FDF768FD1CB010BD21400000012002499A
:10278000C00688607047000000ED00E010B5044806
:10279000FEF736FF03480168491C016010BD0000C8
:1027A0002C0100201C000020F0B502681A4B012407
:1027B000A4071A4D984203D0A04201D0A84203D1E9
:1027C0007026B2434E683243154E164F98420AD0D7
:1027D000A04208D0A84206D0134CA04203D0B04279
:1027E00001D0B84204D103242402A243CC6822437E
:1027F0008024A2434C69224302608A68C2620A684C
:102800008262984203D0B04201D0B84201D1096936
:10281000016301214161F0BD002C01400004004032
:1028200000440140004801400020004030B5846869
:10283000FF252D02AC431B0213430B43234383604C
:1028400030BD00008268034B1A400A4307210A4347
:10285000826070478FFFCFFF30B5036A046A640857
:10286000640004628469F025AC43120122430A2407
:10287000A3430B438261036230BD30B5036A102469
:10288000A34303628369046A0F252D03AB4312033C
:102890001A43A0239C43090121438261016230BD98
:1028A000F0B585B013A106C90392029113A106C920
:1028B000019200910446416E4034002915D0006811
:1028C000816809014D0F8068400F6E46315C02AF90
:1028D000385CC000FDF70CFC6085785D715DC00060
:1028E000FDF706FC208505B0F0BD01206085208540
:1028F000F9E70000010101030701000008040204D8
:102900000801010110B5018DC90707D001684A68A7
:1029100001235B049A43C36A1A434A60018D890705
:1029200007D501684A6801231B049A43036B1A43C5
:102930004A60018D490707D501684A6801239B0455
:102940009A43436B1A434A60018D090707D5016812
:102950004A680123DB039A43836B1A434A60018D63
:10296000C90607D501688A6801231B039A43C36B14
:102970001A438A60018D890607D501688A68012398
:102980005B039A43036C1A438A60018D490612D592
:1029900001684B6801221205446C934323434B604A
:1029A000416C914207D101684A6803235B059A4351
:1029B000836C1A434A60018D090607D501684A688D
:1029C0000123DB04C06C9A4302434A6010BD00003F
:1029D000FEB50446254600268035EE60FDF7D0FEA4
:1029E000019020680068134F00070BD50121009764
:1029F000002249052046019B00F0A4FB002801D0DD
:102A00000320FEBD2068006840070BD50121009718
:102A1000002289052046019B00F094FB002801D08C
:102A20000320FEBD20206860A860E6662E700020AE
:102A3000FEBD0000FFFFFF0110B5806A00220146C5
:102A40004031CA83CA82FEF7CDFE10BD01680A6814
:102A5000FF2321339A430A6001688A68084B1A40B1
:102A60008A60C16E012904D101680A6810239A4363
:102A70000A60202288210A500021C1660167704740
:102A8000FEFFFFEF10B501680A6840239A430A6011
:102A9000202284210A5000214167FFF72CF910BD44
:102AA00070B5044620464030038C214680318D6845
:102AB0000A462168222D04D08869082210438861C3
:102AC00070BD496AA56D19402980A16D891CA16559
:102AD000C18B491EC183C18B0029F1D121680B68CC
:102AE000FF252135AB430B6021688B685B085B00D9
:102AF0008B602021916000252567E16E012904D0BB
:102B00002046FFF769F8E56670BD21680A68102362
:102B10009A430A60818B2046FEF73CFEF3E70000F3
:102B2000F0B585B0044627464037388C03902068BE
:102B3000C669016801918168009125468035A968C0
:102B4000222905D0816908221143816105B0F0BDB9
:102B5000388D029053E02068406AA16D039A1040BE
:102B60000880A06D801CA065F88B401EF88320684B
:102B7000C669710729D0F10707D00199C90504D5A5
:102B800001210162E8680843E860B00709D50098B0
:102B9000C00706D0216802200862E86804210843C3
:102BA000E860700709D50098C00706D021680420A6
:102BB0000862E86802210843E860E868002804D059
:102BC0002046FEF70FFE0020E860F88B002816D1A3
:102BD00020680168FF22013291430160206881680A
:102BE000184A114081602020A86000202067E06E14
:102BF00001281DD02046FEF7EFFF0020E066029876
:102C0000002801D0B006A6D4F88B00289ED0398DBC
:102C100081429BD92068816801221207914381601B
:102C200009482067206801682022114301608DE770
:102C300020680168102291430160B98B2046FEF79D
:102C4000A9FDDAE7FEFFFFEFA12A000870B50446F0
:102C500020464030038C214680318D680A46216829
:102C6000222D04D0886908221043886170BD496A0A
:102C70001940A36D1970A16D491CA165C18B491E36
:102C8000C183C18B0029F1D121680B68FF25213553
:102C9000AB430B6021688B685B085B008B60202175
:102CA000916000252567E16E012904D02046FEF7DA
:102CB00093FFE56670BD21680A6810239A430A6095
:102CC000818B2046FEF766FDF3E70000F0B585B086
:102CD000044627464037388C03902068C66901684F
:102CE00001918168009125468035A968222905D087
:102CF000816908221143816105B0F0BD388D0290D1
:102D000053E02068406A03990840A16D0870A06DE7
:102D1000401CA065F88B401EF8832068C6697107C7
:102D200029D0F10707D00199C90504D50121016215
:102D3000E8680843E860B00709D50098C00706D0E6
:102D4000216802200862E86804210843E8607007EF
:102D500009D50098C00706D0216804200862E868F9
:102D600002210843E860E868002804D02046FEF706
:102D700039FD0020E860F88B002816D12068016832
:102D8000FF2201329143016020688168184A114096
:102D900081602020A86000202067E06E01281DD0FF
:102DA0002046FEF719FF0020E0660298002801D0B7
:102DB000B006A6D4F88B00289ED0398D81429BD9CD
:102DC00020688168012212079143816009482067C9
:102DD000206801682022114301608DE720680168A6
:102DE000102291430160B98B2046FEF7D3FCDAE74D
:102DF000FEFFFFEF4D2C0008F8B5044600258B4B75
:102E000020682269A168E66911436269324311436F
:102E1000626E0A430168864E3140114301602068AA
:102E20004168032212039143E26811434160A069A3
:102E30002168994201D0226A10438A687D4E32404F
:102E400002438A602068C16A626A09090901114364
:102E5000C1627949226879488A4213D14069800762
:102E6000800F07D0012809D0022805D0032807D0F9
:102E7000102026E0002024E0022022E0042020E0B0
:102E800008201EE06E498A4201D1002019E09A42D2
:102E900016D140690321890208400BD00121890223
:102EA000401A0BD0401A07D0884201D1082008E010
:102EB000102006E0002004E0022002E0042000E0F0
:102EC000102001215F4F604EC9039A4243D1002870
:102ED0001AD0022805D004281AD008281CD00027B0
:102EE0000125002F0FD0606A4000315A384600910A
:102EF000FDF7FEF8666871007118814202D831034F
:102F000081420BD2012586E0FDF7C4FF0746E8E7C2
:102F1000FDF7D4FF0746E4E70F46E2E70023384613
:102F20001946009AFDF7FAF8020E0902000273082A
:102F30001143C0180022514132460023FDF7EEF83C
:102F400003210902414A411A914202D82168C8600E
:102F500061E001255FE0E2698A4231D1002823D097
:102F6000022805D0042823D0082825D000270125D1
:102F7000002F50D0606A4000315A3846FDF7B8F84B
:102F8000616840004A088018FDF7B2F880B2014637
:102F90002F4A1039914211D8511C01400007420FAD
:102FA0000A432068C26036E0FDF774FF0746DFE79A
:102FB000FDF784FF0746DBE70F46D9E701252AE046
:102FC00000281DD0022805D004281DD008281FD0B5
:102FD00000270125002F1ED0606A4000315A384674
:102FE000FDF786F861684A088018FDF781F880B21D
:102FF0000146174A103991420CD82168C8600AE08E
:10300000FDF748FF0746E5E7FDF758FF0746E1E70C
:103010000F46DFE70125012120464030418501852B
:103020000020206760672846F8BD0000008000404F
:10303000F369FFCFFFF4FF11003801404010024058
:10304000004400400024F40074320008FFFC0F002C
:10305000EFFF0000F0B58165014640318A83CA83E5
:1030600000240467012583682D03FF26AB4207D1A6
:103070000369002B01D00E8419E02D4B0B8416E060
:103080007F27002B09D001263607B3420ED10369F2
:10309000002B09D03F230B8409E00369002B01D0EA
:1030A0000F8404E00E8402E00F8400E00C840346E9
:1030B0008033DC6022269E600768BE68BC4601271C
:1030C0003E436746BE600127466E7F07BE421AD167
:1030D000098D914217D88168A94202D1016900295E
:1030E0000ED0144901671C7001680A68FF23013380
:1030F0001A430A60006881681A051143816011E073
:103100000D490167EFE78168A94202D101690029F1
:103110000AD00A4901671C7000680168FF22213249
:10312000114301600020F0BD05490167F3E700008D
:10313000FF010000CD2C0008212B00084D2C0008B9
:10314000A12A0008FFB581B00A9E04460F46254615
:1031500080353BE0701C39D0FDF712FB0499401A12
:10316000B04221D8002E1FD02068016849072DD514
:10317000C069C043000529D401202168C00208624B
:1031800020680268FF21A1318A43026020688168BB
:1031900049084900816020206860A860E86000203C
:1031A0002870032005B0F0BD20680168FF22A1321D
:1031B00091430160206881684908490081602020AE
:1031C0006860A860002028700320EBE72068C169D0
:1031D0003846884305D0002003998842BAD00020A1
:1031E000E0E70120F8E7000010B50248FEF7FCFA1E
:1031F00010BD00007801002010B50248FEF7F4FA77
:1032000010BD0000080200208307FF22DB0E9A4059
:103210008907090E9940002808DB830809489B00AC
:103220001818036893430B43036070470007000FAF
:103230000838830804489B001818C36993430B435C
:10324000C361704700E400E000ED00E002E008C860
:10325000121F08C1002AFAD170477047002001E010
:1032600001C1121F002AFBD17047FCF7CDFFFCF70C
:10327000CFFFFCE7010002000400060008000A007E
:103280000C00100020004000800000010000000041
:10329000000000000000000000000000000000002E
:1032A000000000000000000000000000010000001D
:1032B00002000000030000000400000006000000FF
:1032C00007000000080000000900000000000000E6
:1032D00000000000000000000000000001000000ED
:1032E0000200000003000000040000000C3300088E
:1032F00000000020240000004C3200083033000899
:1033000024000020740600005C3200080100000068
:1033100004000000000000000024F4000000000091
:10332000000000000000000000000000000000009D
:04000005080000C12E
:00000001FF
