:020000040800F2
:1000000070060020DD0000084D1D0008591B000887
:1000100000000000000000000000000000000000E0
:10002000000000000000000000000000511D00085A
:1000300000000000000000004F1D0008531D0008D4
:10004000EF000008EF000008EF000008EF000008D4
:10005000EF000008EF000008EF000008A902000808
:1000600000000000EF000008EF000008EF000008AB
:10007000EF000008EF000008EF000008EF000008A4
:10008000F11D0008EF000008EF000008EF00000875
:1000900000000000EF000008EF000008EF0000087B
:1000A000EF000008EF000008EF000008FD2800083E
:1000B00029290008EF0000080000000000000000EF
:1000C0000348854600F092F8004800471D2A0008C2
:1000D0007006002080F308887047000004488047BD
:1000E00004480047FEE7FEE7FEE7FEE7FEE7FEE71F
:1000F000E11D0008C100000830B50B460146002094
:100100002022012409E00D46D5409D4205D31D461D
:100110009540491B2546954040191546521E002D15
:10012000F1DC30BDF0B51FB40646002082B00546B4
:100130004024019100901BE0019922460F46304671
:1001400000F042F8049A059B801A994110D310469A
:100150001946224600F028F8361A8F4101972246A8
:1001600001200021009F00F01FF838184D41009039
:100170002046641E0028DFDC019B00982946324699
:1001800007B0F0BDD2B201E00270401C491EFBD2A4
:1001900070470022F6E710B513460A460446194692
:1001A000FFF7F0FF204610BD10B5202A04DB014602
:1001B000203A9140002010BD914020239C1A034614
:1001C000E3401943904010BD10B5202A04DB0846D7
:1001D000203AD040002110BD0B46D340D04020240F
:1001E000A21A91400843194610BD0000064C012593
:1001F000064E05E0E36807CC2B430C3C98471034CF
:10020000B442F7D3FFF760FFAC2A0008CC2A0008FD
:1002100010B500F02BF810BD10B5282210490120B0
:1002200001F084FE00280AD10D48001F0178002942
:100230000ED00022027040210A4800F0E9F9084976
:10024000C822091D012001F071FE002802D004E03F
:100250000122EFE7044802F0C7FB01F07FFC10BD6C
:1002600014000020000800500050000810B500F0F5
:100270001DFA01F07BFC01F0BFFC01F0D7FC01F09E
:1002800011FD01F037FD01F069FD02A002F054FB01
:1002900010BD0000626F6F746C6F61646572206FD7
:1002A0006B2021200D0A000010B5202000F0FAF884
:1002B00010BD72B6FEE70000F0B500280AD0014676
:1002C00020314A79022A07D00422C2630020087133
:1002D0000120F0BD0120F0BD026813680E24A34385
:1002E0001360426C1468FF2301339C43146002685E
:1002F00014686408640014600C4E7268056C1C2459
:10030000254001242746AF403A437260856CC26C99
:100310006A60026D002A05D015689D431560826DE4
:10032000406D42604C7100200871F0BD0000024039
:10033000F8B50024014620314A79022A03D004216D
:10034000C16301242DE0026813680E25AB431360DE
:10035000026813685B085B001360426C1368FF253A
:100360000135AB431360104E7268056C1C231D40B1
:1003700001231F46AF403A437260856CC26C6A60CD
:10038000026D002A06D016681D02AE431660456D48
:10039000826D6A604B7100220A71816B002900D066
:1003A00088472046F8BD00000000024010B500213B
:1003B0000748C943C1620022C262016302638162CD
:1003C00082624162426200F0ADF9002010BD00007F
:1003D00000100240F0B5002256E0012393409E46F3
:1003E0000B40002B4FD09508294CAD002C19256EE1
:1003F0009607F70E0F26BE403540AC4605252D0763
:10040000A84201D100250FE0224DA84201D10125CB
:100410000AE0214DA84201D1022505E01F4DA84266
:1004200001D1032500E00525BD40654511D1184DDA
:1004300080352F689F432F606F689F436F60144D16
:100440002F689F432F606F689F436F60236EB34395
:100450002366046855000323AB401C430460D408A2
:10046000A4002418266A5507EF0E0F25BD40AE43A1
:10047000266284689C43846044687546AC4344604B
:10048000C4689C43C460521C0B46D340A5D1F0BD48
:10049000001802400004005000080050000C0050FA
:1004A0007047000070B50446074DE868204203D04D
:1004B000EC60204600F00AF82869204203D02C6145
:1004C0002046FFF7EDFF70BD0018024070470000A6
:1004D000F0B500228DE0012595402B40002B7DD00A
:1004E0004C68012C05D0022C03D0112C01D0122C09
:1004F00010D1866854000327A740BE43CF68A740A9
:10050000374387604468AC430D79ED06ED0F9540A5
:1005100025434560C66855000324AC40A646A64363
:100520008F68AF403743C7604C68022C01D0122C53
:100530000ED1D408A4002418276AA4465607F40E46
:100540000F26A640B7430E69A6403E436446266286
:1005500004687646B4430E79B607B60FAE4026431C
:1005600006604C68E40043D59508254CAD002F1972
:100570003D6E9407E40E0F26A640B54305263607C8
:10058000B04201D100260FE01E4EB04201D101263B
:100590000AE01D4EB04201D1022605E01B4EB042DA
:1005A00001D1032600E00526A6402E43144D3E66E9
:1005B000134E803634689C434F68FF0300D51C43BC
:1005C000346074689C434F68BF0300D51C4374605B
:1005D0002C689C434E68F60202D500E008E01C43FC
:1005E0002C606C689C434E68B60200D51C436C605E
:1005F000521C0B681C46D44000D06CE7F0BD0000D4
:10060000001802400004005000080050000C005088
:10061000002A01D08161704781627047014880687B
:10062000704700000000002070B50446002C0FD079
:1006300021681348086021681248086021686068D2
:1006400048602168A0688860FFF7E8FF054608E079
:10065000012070BDFFF7E2FF401B302801D90320C5
:1006600070BD2068C0680028F4D120680269E16884
:100670008A4201D0016101E003490160002070BDA0
:10068000CCCC000055550000AAAA00000068024921
:100690000160002070470000AAAA0000024881689B
:1006A00002788918816070470000002010B500248E
:1006B00007480168821511430160002000F00AF824
:1006C000002801D0012401E000F02EF8204610BDE2
:1006D0000020024070B505460024104E31780029F4
:1006E00019D07D20C000FFF707FD01460C480068C7
:1006F000FFF702FD00F0F4FC002801D001240BE01C
:10070000042D06D200222946501E00F03FF87560E5
:1007100002E0012400E00124204670BD000000201A
:100720000C0000207047000008B50948016801224C
:100730001143016000681040009005484038C26BCA
:1007400001040A43C263C06B0840009008BD00006A
:1007500040100240002809DBC106C90E0120884074
:1007600003490860BFF34F8FBFF36F8F70470000DE
:1007700080E100E0002805DBC106C90E01208840A9
:10078000014908607047000000E100E010B502F088
:10079000DDF810BD10B50F4C2168032252029143C1
:1007A00001432160C11FFF39FA390ED10A480621E1
:1007B000006848430949FFF79FFC401C02E00028FD
:1007C00005D0401E61694905F9D4002010BD032001
:1007D00010BD0000007000400C00002040420F00DF
:1007E000FEB504460025002720686E4E800367D5BD
:1007F000002001906B484038C06BC0000AD46948A3
:100800004038C16B02041143C163C06B10400090BB
:100810000120019064480168821511430160FFF7CF
:10082000FDFE029007E0FFF7F9FE0299401A022848
:1008300001D9032503E05C480068C005F3D5002D0D
:1008400004D02F460198012834D039E0F069032103
:100850000902084000280FD0616A81420CD0F0697B
:10086000032109028843F269012109040A43F26164
:10087000F2698A43F261F061C0070FD0FFF7CEFE44
:10088000029008E0FFF7CAFE0299411A47488142E8
:1008900001D9032502E0F0698007F3D5002D01D0CE
:1008A0002F46CFE7F069032109028843616A0843B4
:1008B000F061C7E73B484038C16B02049143C16314
:1008C0002078C00705D070696168800880000843FF
:1008D00070612078C00606D57069032189028843BB
:1008E000A168084370612088800506D570690321DE
:1008F000890488436169084370612088400506D5F2
:100900007069032109058843A16908437061207853
:10091000800606D57069032109038843E16808430E
:1009200070612088400411D57069E16980008008F9
:10093000084370610121E0698907884206D119489E
:100940004038C168012212041143C160206880024E
:1009500010D5706901218905226A884310437061AE
:10096000206A884206D10F484038C1680122120629
:100970001143C1602088000512D5706903218903E5
:1009800088432169084370610121206989038842F5
:1009900006D104484038C168012212041143C160E5
:1009A0003846FEBD40100240007000408813000031
:1009B000F8B504460D46002C0FD054480068400797
:1009C000400FA84218D2514F3868C008C0002843D1
:1009D0003860FFF723FE064609E00120F8BDFFF767
:1009E0001DFE811B4A48814201D90320F8BD3868A9
:1009F0004007400FA842F2D12068464E81070DD52E
:100A0000400704D5B068072109030843B060B06807
:100A10000F2109028843A1680843B0602078C0070D
:100A20003BD0606801280CD002280FD0002812D0DB
:100A300038494031032813D0C969890715D40120EA
:100A4000F8BD3168890310D40120F8BD31688901EF
:100A50000BD40120F8BD3168490506D40120F8BD4A
:100A6000096A890701D40120F8BDB168C908C90025
:100A70000143B160FFF7D2FD074607E0FFF7CEFD67
:100A8000C11B2348814201D90320F8BDB068382139
:100A900008406168C9008842F0D11C4801684907D4
:100AA000490FA94216D90168C908C9002943016044
:100AB000FFF7B4FD074607E0FFF7B0FDC11B144880
:100AC000814201D90320F8BD104800684007400F5B
:100AD000A842F1D12078400706D5B168072000036D
:100AE0008143E0680143B16000F08EF8B1683C22B8
:100AF00089091140084A515CC906C90EC840074916
:100B0000086007480068FFF7E5FDF8BD00200240D7
:100B100088130000001002404C2A00080C0000203E
:100B200004000020F8B5FFF779FD0446244D28683D
:100B3000AE153043286006E0FFF770FD001B022869
:100B400001D90320F8BD28684005F5D501208003B0
:100B50006860FFF763FD04460027AF6007E0FFF71A
:100B60005DFD011B1748814201D90320F8BDA8682B
:100B70008006400FF3D12E602E60FFF74FFD044634
:100B800006E0FFF74BFD001B022801D90320F8BD4A
:100B900028688001F5D401200003E860AF610020DF
:100BA000C043286209490848086009480068FFF7FF
:100BB00091FD002801D00120F8BD0020F8BD000003
:100BC00000100240881300000024F4000C000020F4
:100BD0000400002001480068704700000C0000205D
:100BE00000B5FFF7F7FF0649896807221203114095
:100BF000090B044A8900515CC906C90EC84000BDF2
:100C0000001002408C2A000810B5244CA068244A29
:100C10008006400F16D0A0688006410F50100129B1
:100C20000FD0A1688906490F022914D0A068800658
:100C3000400F04282CD0A0688006400F03282AD03B
:100C4000002010BD206801218004400F8140104623
:100C5000FFF752FA10BDE1688B079B0FE168490668
:100C6000490F491C032B0CD01046FFF745FAE168E9
:100C70004904490E4843E168490F491CFFF73CFA13
:100C800010BDFFF739FAE1684904490E4843F2E71D
:100C90000120C00310BD7D20000210BD00100240E5
:100CA0000024F400FEB50446002C0DD0207838272F
:100CB000C007FE4E002851D0B0683840F16889075F
:100CC000890F102802D003E00120FEBD03290AD0BD
:100CD000082808D001216068090488420BD13068D7
:100CE000084330601AE03068800337D56068002818
:100CF00034D10120FEBD052301221B049204984239
:100D000006D130681043306030680843306005E039
:100D100030688843306030689043306060680028F5
:100D20000ED0FFF77BFC054606E0FFF777FC401B83
:100D3000642801D90320FEBD30688003F5D50DE09D
:100D4000FFF76CFC054606E0FFF768FC401B6428D3
:100D500001D90320FEBD30688003F5D420788007D8
:100D60006DD5B0683840F1688A07920F0721C90233
:100D7000102801D1022A12D0002810D0E0680028E3
:100D80004AD0306888432169084330603068FF21C9
:100D9000013108433060FFF741FC054630E032681E
:100DA000520502D5E268002A0AD072687F231B022E
:100DB0009A4363691B021A437260002802D010E054
:100DC0000120FEBD306888432169084330603068E7
:100DD00001218004400F8140B548FFF78DF9B549E6
:100DE0000860B5480068FFF775FC002827D001208F
:100DF000FEBDFFF713FC401B022801D90320FEBDF6
:100E000030684005F5D570687F2109028843616923
:100E100009020843706012E03168FF20013081430D
:100E20003160FFF7FBFB054606E0FFF7F7FB401BD1
:100E3000022801D90320FEBD30684005F5D4207892
:100E40009E4D000734D5B0688006400F03280AD0B5
:100E5000A06900281AD0286A012108432862FFF7F8
:100E6000DDFB07460EE0286A800721D5A06900282F
:100E70001ED10120FEBDFFF7D1FBC01B022801D906
:100E80000320FEBD286A8007F5D511E0286A4008D6
:100E900040002862FFF7C2FB074606E0FFF7BEFBF3
:100EA000C01B022801D90320FEBD286A8007F5D4A3
:100EB0002078400776D500200190B0688006400F6A
:100EC000042818D0F06BC00009D4F16B0120000792
:100ED0000143F163F16B01400091012001907848DA
:100EE0000168C9051AD40168821511430160FFF732
:100EF00095FB07460EE0E869800753D5A0680028F7
:100F000050D10120FEBDFFF789FBC01B022801D98B
:100F10000320FEBD6A480068C005F4D5A06801281A
:100F200010D00421052812D0E86940084000E8618B
:100F3000E8698843E861A06800281CD0FFF76EFBD1
:100F4000074614E0E86901210843E861F3E7E8692E
:100F50000843E861E86901210843E861EBE7FFF72E
:100F60005DFBC11B5748814201D90320FEBDE869E2
:100F70008007F4D50EE0FFF751FB074607E0FFF7C7
:100F80004DFBC11B4F48814201D90320FEBDE869DA
:100F90008007F4D40198012804D1F06B01210907DE
:100FA0008843F063E06900284FD0B1688906490F93
:100FB000022956D001273F0602280ED03068B843D8
:100FC0003060F06880088000F060F0683E490840BA
:100FD000F060FFF723FB04463FE03068B843306021
:100FE000FFF71CFB054606E0FFF718FB401B022835
:100FF00001D90320FEBD30688001F5D4616A206A02
:10100000A26A0843E16A120211430843216B0843B4
:10101000616B0843F1682D4A11400843F060306865
:1010200038433060F068012109070843F060FFF79A
:10103000F5FA044606E0FFF7F1FA001B022801D991
:101040000320FEBD30688001F5D546E0FFF7E6FAE3
:10105000001B022801D90320FEBD30688001F5D4B1
:101060003BE0012837D0F068226A8107890F91425E
:101070002FD17021626A014091422AD17F21A26A58
:10108000090201401202914223D11F214904E26A60
:10109000014091421DD107214906226B0140914236
:1010A00017D1400F616B4007884211E000100240E9
:1010B0000024F4000C000020040000204010024036
:1010C0000070004088130000FFFFFEEE8C80C1110D
:1010D00003D00120FEBD0120FEBD0020FEBD0000AA
:1010E00010B50949401E884201D9012010BD074CA6
:1010F00060610321081F01F029FC0020A061072086
:101100002061002010BD0000FFFFFF0000E000E0B4
:101110007047704770470000F0B502462032137FD9
:10112000012B27D0012313770223537704686368C8
:10113000A568114EB44204D10F273F05BB434F6849
:101140003B437027BB430F681F4367600068B04292
:1011500006D001239B07984202D0084B984204D145
:1011600080239D43896829438160012050770020B6
:101170001077F0BD0220F0BD002C014000040040BB
:1011800070B5044602202546203568772168086A34
:101190000F4A104207D1086A9210104203D1086822
:1011A000400840000860204600F03CF80021403430
:1011B0002172A977E97721706170A170E1702171C6
:1011C0006171A171E17169772977002070BD00001C
:1011D0001111000070B50446002C05D025462035BD
:1011E000687F002802D006E0012070BD002028772B
:1011F000204600F029F802206877211D206800F0C1
:1012000005FE012240342272AA77EA7722706270CA
:10121000A270E27022716271A271E2716A7700209D
:1012200070BD000010B500680549884207D1054827
:10123000C16B02229143C1631020FFF78BFA10BDEE
:10124000000400400010024008B5006809498842C7
:101250000FD10948C26B02210A43C263C06B084028
:101260000090002211461020FFF790FA1020FFF79F
:1012700081FA08BD00040040001002400146203100
:101280004A7F012A01D00120704702224A77016873
:10129000CB6801221343CB6000680D49884205D01A
:1012A0009107884202D00B4988420BD181680A4BD2
:1012B0001940062909D0DB1F994206D00168114365
:1012C000016002E0016811430160002070470000E6
:1012D000002C014000040040070001000168CA68BA
:1012E00052085200CA6001680A6A084B1A4207D1C4
:1012F0000A6A9B101A4203D10A68520852000A6017
:1013000001212030417700207047000011110000BA
:1013100070B5044625462035287F012817D00126C0
:101320002E770220687720688268314B1A40FF23AD
:101330001B029A4382600A68502A32D00EDC202AAF
:101340004DD006DC002A4AD0102A4CD147E00220BA
:1013500070BD302A43D0402A45D136E0602A2AD0D9
:10136000702A12D001231B03D01A3CD098423AD1E4
:10137000CB684A688968206800F09EFD2068816813
:1013800001229203114381602DE0CB684A6889688D
:10139000206800F091FD2068816877221143816008
:1013A00021E0CA684968206800F09CFD502120684F
:1013B00000F08EFD17E0CA684968206800F0A3FDC0
:1013C0006021206800F084FD0DE0CA68496820684B
:1013D00000F088FD4021206800F07AFD03E011460E
:1013E000206800F075FD6E770020287770BD000042
:1013F00088FFCEFF7047000070B504462068016981
:101400000025C9438907002916DBC168C94389073C
:1014100012D4E91E016101202077206880698007CD
:1014200003D02046FFF7E6FF05E0204600F0AAF8CB
:10143000204600F0A8F8257720680169C9434907CC
:1014400018D4C168C943490714D40421C9430161B0
:1014500002202077206880698005800F03D0204615
:10146000FFF7C8FF05E0204600F08CF8204600F0AA
:101470008AF8257720680169C943090717D4C1682C
:10148000C943090713D40821C94301610420207707
:101490002068C069800703D02046FFF7ABFF05E056
:1014A000204600F06FF8204600F06DF825772068A0
:1014B0000169C943C90618D4C168C943C90614D40F
:1014C0001021C9430161082020772068C069800588
:1014D000800F03D02046FFF78DFF05E0204600F087
:1014E00051F8204600F04FF8257720680169C9437C
:1014F000C90708D1C168C943C90704D1891E016160
:10150000204600F041F820680169C943090609D462
:10151000C168C943090605D48021C9430161204639
:10152000FFF7F7FD20680169C943C90508D4C16800
:10153000C943090604D4124901612046FFF7E8FDBA
:1015400020680169C943490609D4C168C9434906ED
:1015500005D44021C9430161204600F016F82068F7
:101560000169C943890609D4C168C943890605D4FC
:101570002021C94301612046FFF7CCFD70BD00006A
:10158000FFFEFFFF70477047704770477047704716
:1015900070B505462C468034207801281AD00120E9
:1015A0002070242060602868066802685208520093
:1015B00002602868826807235B069A430A438260B8
:1015C000284600F0CBFC28680660202060600020E0
:1015D000207070BD022070BD7047704770B5044622
:1015E000002C19D0242025468035686020680168C9
:1015F00049084900016020680026066020684660AE
:1016000020688660204600F07BF9EE606E60AE6078
:10161000E6662E70002070BD012070BD704700008E
:10162000F8B504462368D86919689A68934D064648
:101630002E40002E0ED185060CD5012720253F0710
:101640000D4017403D4305D0216F002901D02046B1
:101650008847F8BD25468035002E7CD0884E894FBE
:1016600016400F40374376D0C70706D0CF0504D5C4
:1016700001271F62EB683B43EB60830708D5D30764
:1016800006D0276802233B62EB6804273B43EB60EC
:10169000430708D5D30706D0276804233B62EB68CD
:1016A00002273B43EB60030709D520230B4033435C
:1016B00005D0266808233362EE681E43EE600305FA
:1016C00009D54B0107D501232668DB023362EB689D
:1016D00020263343EB60EB68002BBAD080060AD596
:1016E00020200140C0050240114304D0216F002991
:1016F00001D020468847E86821688968490602D4F5
:101700002821084221D0204600F02AFD2068816867
:10171000490616D5826840218A438260E06F00281E
:101720000AD059498163E06FFEF702FE002890D08D
:10173000E06F816B8847F8BD2046FFF76FFFF8BD6B
:1017400009E02046FFF76AFFF9E72046FFF766FF4A
:101750000020E860F3E7E66E012E5CD1C6065AD59C
:10176000CE0658D510221A6220688168264649069E
:10177000403600292EDAE36F1968496889B20029DA
:10178000DDD0B78B8F42DAD9F183196809688906F1
:1017900018D40168130199430160206881684908E1
:1017A000490081602068816840239943816020203E
:1017B000A8600020E0662068016891430160E06F46
:1017C000FEF77AFDB08BF18B401A81B22046FFF70D
:1017D000DDFEB4E7B18BF38BC91A89B2F38B002B12
:1017E000ADD00029ABD00368FF262136B343036098
:1017F00020688368224EF643334083602020A8602F
:101800000020E06620672068036893430360204659
:10181000FFF7BCFE93E7C50208D5550206D50120A7
:10182000000518622046FFF7D8FE88E703060CD5AE
:1018300001258023ED050B402A40134305D0616F3D
:10184000002987D02046884779E7420605D54A0611
:1018500003D5204600F0A0FC71E7020205D54A003E
:1018600003D52046FFF7B8FE69E7C001B1D50029CE
:10187000AFDA2046FFF78BFE61E700000F0800009B
:101880000100001020010004F520000870B5044696
:10189000002C05D0254680356868002802D006E077
:1018A000012070BD00202870204600F055F824204B
:1018B000686020680168490849000160204600F01E
:1018C00025FE012819D0A06A002802D0204600F089
:1018D00077FB206841680922D20291434160206869
:1018E00081682A22914381602068016801221143A6
:1018F0000160204600F0CAFB70BD012070BD0000F1
:1019000010B50168114A0520000791420DD1104918
:101910000A6801239B039A430A6003214902FEF7E8
:1019200059FD1B20FEF716FF10BD0A4A9142FBD15C
:1019300007494039CA6B01235B049A43CA63C91340
:10194000FEF748FD1C20FEF705FF10BD00380140E2
:101950004010024000440040F0B587B00446142116
:1019600002A8FEF716FC284E22680520002327490E
:10197000012402250007B24222D1244A40321768CE
:10198000A603374317601268324001924A6B224324
:101990004A63496B21400191032149020291039559
:1019A00004930593069402A9FEF792FD00220121FB
:1019B0001B20FEF7EBFE1B20FEF7DCFE07B0F0BDA0
:1019C000134EB242FAD1CA6B012676043243CA637F
:1019D000CA6B324001924A6B22434A63496BC90782
:1019E000C90F01910B490291039504930593069445
:1019F00002A9FEF76DFD002201211C20FEF7C6FEA4
:101A00001C20FEF7B7FED9E7003801400010024065
:101A1000004400400480000030B5034680339C68D9
:101A2000202C01D0022030BD00290AD0002A08D085
:101A3000012584682D03AC4209D10469002C02D031
:101A400005E0012030BDCC0701D0012030BD1C785D
:101A5000012C06D001241C700023C36600F084FE14
:101A600030BD022030BD7047FFB583B004460E463E
:101A700015462046803002904068202802D002207F
:101A800007B0F0BD002E0AD0002D08D00120A168BB
:101A90000003814209D12069002802D005E001201D
:101AA000EEE7F00701D00120EAE70298007801286C
:101AB0001DD002980121017002990020C86002988F
:101AC00021214160FEF7AAFD019027464037BD82E3
:101AD000FD820120A1680003814202D12069002813
:101AE00007D03546002602990020087018E0022031
:101AF000C6E70025F7E706980090002280212046DF
:101B0000019B00F0A9FE002801D00320B8E7002DBA
:101B100015D0287821686D1C8862F88A401EF882EA
:101B2000F88A0028E7D1069800900022402120463C
:101B3000019B00F091FE002808D00320A0E7308828
:101B4000B61CC0052168C00D8862E6E70298202116
:101B50004160002094E77047FEE7000010B502489E
:101B6000FEF794FD10BD00002800002010B586B0DF
:101B7000142101A8FEF70DFB1C48426B04210A4307
:101B80004263426B0A400092426B02210A43426365
:101B9000426B0A400092426B012422434263406B35
:101BA00020400090202001901148029003910520D0
:101BB00001A90007FEF78CFC002211460720FEF762
:101BC000E5FD0720FEF7D6FD40200190029400209D
:101BD0000390084C01A92046FEF77AFC012240211F
:101BE0002046FEF715FD06B010BD000000100240B3
:101BF000000011100008005010B5094807490160A5
:101C0000042141600749C16007498160FEF70CFD6E
:101C1000002801D0FEF74DFB10BD00000030004051
:101C200028000020FF0F0000350C000010B588B020
:101C30000024049405940694079401940294039458
:101C40001648154901609F21416084601449C160B4
:101C5000046180218161FFF7BDFA002801D0FEF701
:101C600028FB01200003049004A90C48FFF750FB57
:101C7000002801D0FEF71DFB0194039401A9074839
:101C8000FFF74AFA002801D0FEF713FB0348FFF7DD
:101C9000F5FA08B010BD0000000400403800002034
:101CA0008713000010B5124C10482060E12040025C
:101CB00060600020A060E06020610C216161A06193
:101CC000E0612046FFF7E2FD002801D0FEF7F1FABF
:101CD00000210748FFF75CFC002801D0FEF7E9FA75
:101CE0002068016820221143016010BD00380140C6
:101CF0004C01002010B5134811490160E12149024F
:101D0000416000218160C16001610C2242618161FA
:101D1000C161016241628162FFF7B8FD002801D014
:101D2000FEF7C7FA00210748FFF732FC002801D070
:101D3000FEF7BFFA012204490248FFF76DFE10BD0D
:101D400000440040DC01002022000020FEE7704734
:101D5000704710B5FEF7A2FC10BD000010B59CB096
:101D600038210EA8FEF715FA00240A940B940C945F
:101D70000D9428216846FEF70CFA01204002FEF778
:101D800009FD0A200E90FF2001301190129440208E
:101D900013900120149015940EA8FEF783FF0028DD
:101DA00001D0FEF786FA07200A900B940C940D944C
:101DB00000210AA8FEF7FCFD002801D0FEF779FA01
:101DC000064800900194039407946846FEF708FDC6
:101DD000002801D0FEF76DFA1CB010BD21400000B4
:101DE00001200249C00688607047000000ED00E055
:101DF00010B50448FFF700FB03480168491C016067
:101E000010BD0000380000201C000020F0B5026862
:101E10001A4B0124A4071A4D984203D0A04201D0C6
:101E2000A84203D17026B2434E683243154E164F76
:101E300098420AD0A04208D0A84206D0134CA04233
:101E400003D0B04201D0B84204D103242402A243FB
:101E5000CC6822438024A2434C69224302608A68F2
:101E6000C2620A688262984203D0B04201D0B8428E
:101E700001D10969016301214161F0BD002C0140DC
:101E800000040040004401400048014000200040A0
:101E900010B50748FFF774F90548FFF71FFA054822
:101EA000C16B02229143C1631020FEF753FC10BDA9
:101EB000380000200010024030B58468FF252D0254
:101EC000AC431B0213430B432343836030BD00002C
:101ED0008268034B1A400A4307210A438260704715
:101EE0008FFFCFFF30B5036A046A640864000462A0
:101EF0008469F025AC43120122430A24A3430B4317
:101F00008261036230BD30B5036A1024A3430362CB
:101F10008369046A0F252D03AB4312031A43A023E0
:101F20009C43090121438261016230BD10B54342E7
:101F300009480B4205D1002903D00068086004203D
:101F400010BD0B680468E31A934203D3006808606D
:101F5000002010BD0D2010BD1C000020F0B585B084
:101F600013A106C90392029113A106C9019200911F
:101F70000446416E4034002915D00068816809018B
:101F80004D0F8068400F6E46315C02AF385CC00078
:101F9000FEF7B2F86085785D715DC000FEF7ACF8C1
:101FA000208505B0F0BD012060852085F9E700009F
:101FB00001010103070100000804020408010101F6
:101FC00010B5018DC90707D001684A6801235B0479
:101FD0009A43C36A1A434A60018D890707D501688D
:101FE0004A6801231B049A43036B1A434A60018D1C
:101FF000490707D501684A6801239B049A43436B4C
:102000001A434A60018D090707D501684A68012310
:10201000DB039A43836B1A434A60018DC90607D5D7
:1020200001688A6801231B039A43C36B1A438A60C1
:10203000018D890607D501688A6801235B039A43ED
:10204000036C1A438A60018D490612D501684B68FA
:1020500001221205446C934323434B60416C91422F
:1020600007D101684A6803235B059A43836C1A43CE
:102070004A60018D090607D501684A680123DB041F
:10208000C06C9A4302434A6010BD0000FEB504468E
:10209000254600268035EE60FEF7C0FA01902068E4
:1020A0000068134F00070BD5012100970022490556
:1020B0002046019B00F0D0FB002801D00320FEBD8C
:1020C0002068006840070BD5012100970022890590
:1020D0002046019B00F0C0FB002801D00320FEBD7C
:1020E00020206860A860E6662E700020FEBD00001B
:1020F000FFFFFF0110B5806A002201464031CA830C
:10210000CA82FFF78BFA10BD10B51348FFF766FAC5
:1021100012480168012292039143016005240321C2
:10212000240749022046FEF755F91B20FEF712FB53
:1021300009489030FFF752FA08494039CA6B01202C
:1021400040048243CA63C9132046FEF743F91C20AA
:10215000FEF700FB10BD00004C01002040100240C3
:1021600001680A68FF2321339A430A6001688A687C
:10217000084B1A408A60C16E012904D101680A68BF
:1021800010239A430A60202288210A500021C16648
:1021900001677047FEFFFFEF10B501680A68402332
:1021A0009A430A60202284210A5000214167FFF7E8
:1021B000D2FC10BD70B5044620464030038C214649
:1021C00080318D680A462168222D04D08869082252
:1021D0001043886170BD496AA56D19402980A16DC1
:1021E000891CA165C18B491EC183C18B0029F1D116
:1021F00021680B68FF252135AB430B6021688B6894
:102200005B085B008B602021916000252567E16EF3
:10221000012904D02046FFF726FCE56670BD216841
:102220000A6810239A430A60818B2046FFF7AEF9B3
:10223000F3E70000F0B585B0044627464037388CF8
:1022400003902068C6690168019181680091254664
:102250008035A968222905D081690822114381614E
:1022600005B0F0BD388D029053E02068406AA16D42
:10227000039A10400880A06D801CA065F88B401E5A
:10228000F8832068C669710729D0F10707D0019942
:10229000C90504D501210162E8680843E860B00778
:1022A00009D50098C00706D0216802200862E868B6
:1022B00004210843E860700709D50098C00706D0DC
:1022C000216804200862E86802210843E860E868A1
:1022D000002804D02046FFF7A1F90020E860F88B21
:1022E000002816D120680168FF2201329143016065
:1022F00020688168184A114081602020A860002071
:102300002067E06E01281DD02046FFF7ACFB0020BF
:10231000E0660298002801D0B006A6D4F88B002809
:102320009ED0398D81429BD9206881680122120795
:102330009143816009482067206801682022114389
:1023400001608DE720680168102291430160B98B1C
:102350002046FFF71BF9DAE7FEFFFFEFB521000883
:1023600070B5044620464030038C214680318D688C
:102370000A462168222D04D088690822104388610A
:1023800070BD496A1940A36D1970A16D491CA16502
:10239000C18B491EC183C18B0029F1D121680B6813
:1023A000FF252135AB430B6021688B685B085B0020
:1023B0008B602021916000252567E16E012904D002
:1023C0002046FFF750FBE56670BD21680A681023C0
:1023D0009A430A60818B2046FFF7D8F8F3E70000A4
:1023E000F0B585B0044627464037388C0390206806
:1023F000C669016801918168009125468035A96808
:10240000222905D0816908221143816105B0F0BD00
:10241000388D029053E02068406A03990840A16D0E
:102420000870A06D401CA065F88B401EF8832068E2
:10243000C669710729D0F10707D00199C90504D5EC
:1024400001210162E8680843E860B00709D50098F7
:10245000C00706D0216802200862E868042108430A
:10246000E860700709D50098C00706D021680420ED
:102470000862E86802210843E860E868002804D0A0
:102480002046FFF7CBF80020E860F88B002816D133
:1024900020680168FF220132914301602068816851
:1024A000184A114081602020A86000202067E06E5B
:1024B00001281DD02046FFF7D6FA0020E0660298DA
:1024C000002801D0B006A6D4F88B00289ED0398D04
:1024D00081429BD920688168012212079143816063
:1024E00009482067206801682022114301608DE7B8
:1024F00020680168102291430160B98B2046FFF7E4
:1025000045F8DAE7FEFFFFEF61230008F8B504465F
:1025100000258B4B20682269A168E6691143626936
:1025200032431143626E0A430168864E31401143C3
:10253000016020684168032212039143E26811435D
:102540004160A0692168994201D0226A10438A68DB
:102550007D4E324002438A602068C16A626A09097E
:1025600009011143C1627949226879488A4213D12D
:1025700040698007800F07D0012809D0022805D0C4
:10258000032807D0102026E0002024E0022022E0CB
:10259000042020E008201EE06E498A4201D100207C
:1025A00019E09A4216D140690321890208400BD0F4
:1025B00001218902401A0BD0401A07D0884201D16C
:1025C000082008E0102006E0002004E0022002E0DD
:1025D000042000E0102001215F4F604EC9039A42A1
:1025E00043D100281AD0022805D004281AD0082880
:1025F0001CD000270125002F0FD0606A4000315AFF
:1026000038460091FDF778FD6668710071188142C7
:1026100002D8310381420BD2012586E0FEF7E0FAB1
:102620000746E8E7FEF7F0FA0746E4E70F46E2E779
:10263000002338461946009AFDF774FD020E090280
:10264000000273081143C018002251413246002392
:10265000FDF768FD03210902414A411A914202D85F
:102660002168C86061E001255FE0E2698A4231D1FA
:10267000002823D0022805D0042823D0082825D0FC
:1026800000270125002F50D0606A4000315A38469B
:10269000FDF732FD616840004A088018FDF72CFD07
:1026A00080B201462F4A1039914211D8511C014085
:1026B0000007420F0A432068C26036E0FEF790FA36
:1026C0000746DFE7FEF7A0FA0746DBE70F46D9E744
:1026D00001252AE000281DD0022805D004281DD09D
:1026E00008281FD000270125002F1ED0606A400057
:1026F000315A3846FDF700FD61684A088018FDF739
:10270000FBFC80B20146174A103991420CD821686F
:10271000C8600AE0FEF764FA0746E5E7FEF774FAD8
:102720000746E1E70F46DFE701250121204640305B
:10273000418501850020206760672846F8BD0000BC
:1027400000800040F369FFCFFFF4FF110038014023
:1027500040100240004400400024F400322A0008E7
:10276000FFFC0F00EFFF0000F0B58165014640312E
:102770008A83CA8300240467012583682D03FF260A
:10278000AB4207D10369002B01D00E8419E02D4B19
:102790000B8416E07F27002B09D001263607B342B1
:1027A0000ED10369002B09D03F230B8409E0036994
:1027B000002B01D00F8404E00E8402E00F8400E0BF
:1027C0000C8403468033DC6022269E600768BE6866
:1027D000BC4601273E436746BE600127466E7F0721
:1027E000BE421AD1098D914217D88168A94202D1FF
:1027F000016900290ED0144901671C7001680A683C
:10280000FF2301331A430A60006881681A051143E7
:10281000816011E00D490167EFE78168A94202D1AB
:10282000016900290AD00A4901671C700068016823
:10283000FF222132114301600020F0BD05490167EC
:10284000F3E70000FF010000E12300083522000843
:1028500061230008B5210008FFB581B00A9E044637
:102860000F46254680353BE0701C39D0FDF7D6FE7B
:102870000499401AB04221D8002E1FD02068016868
:1028800049072DD5C069C043000529D4012021681E
:10289000C002086220680268FF21A1318A430260F9
:1028A0002068816849084900816020206860A8602C
:1028B000E86000202870032005B0F0BD20680168A2
:1028C000FF22A132914301602068816849084900D4
:1028D000816020206860A860002028700320EBE75A
:1028E0002068C1693846884305D000200399884292
:1028F000BAD00020E0E70120F8E7000010B5084852
:10290000FEF78EFE06480068C1690168C169426A27
:102910000449034B0878C83B1A54401C087010BD8A
:102920004C0100202000002010B50248FEF778FE80
:1029300010BD0000DC01002010B5024A024900F081
:1029400036F810BDCD290008240000208307FF229F
:10295000DB0E9A408907090E9940002808DB83089E
:1029600009489B001818036893430B4303607047A2
:102970000007000F0838830804489B001818C36933
:1029800093430B43C361704700E400E000ED00E0B7
:1029900002E008C8121F08C1002AFAD17047704728
:1029A000002001E001C1121F002AFBD17047F8B5D9
:1029B00016460F460446002503E03946B047641C1E
:1029C0006D1C20780028F8D12846F8BD13B5044BBB
:1029D000012269460348FFF747F800981CBD000034
:1029E000FFFF00004C01002070B5044620680A4932
:1029F00008400121490788420CD1FFF749FAFFF747
:102A000083FBFEF78FF8FDF7D1FC65682068FDF7C2
:102A100061FBA84770BD00000000FE2F08B5FDF760
:102A2000F7FBFDF7F9FB142269460120FFF77EFA58
:102A3000F7E7010002000400060008000A000C008D
:102A40001000200040008000000100000000000095
:102A50000000000000000000000000000000000076
:102A60000000000000000000000000000100000065
:102A70000200000003000000040000000600000047
:102A8000070000000800000009000000000000002E
:102A90000000000000000000000000000100000035
:102AA000020000000300000004000000CC2A00081F
:102AB000000000202800000090290008F42A0008E7
:102AC0002800002048060000A0290008010000009E
:102AD00004000000000000000024F40000000000DA
:102AE00000000000000000000000000000000000E6
:042AF00000000000E2
:04000005080000C12E
:00000001FF
